:020000040800F2
:1000000000000120A5020008A9020008AD020008B6
:10001000C5020008C9020008E10200080000000053
:10002000000000000000000000000000F9020008CD
:10003000FD0200080000000001030008A10B0008F9
:100040001903000819030008190300081903000820
:100050001903000819030008190300081903000810
:100060001903000819030008190300081903000800
:1000700019030008190300081903000819030008F0
:1000800019030008190300081903000819030008E0
:1000900019030008190300081903000819030008D0
:1000A00019030008190300081903000819030008C0
:1000B00019030008190300081903000819030008B0
:1000C00019030008190300081903000819030008A0
:1000D0001903000819030008890A00081903000819
:1000E00019030008190300081903000800000000A4
:1000F0000000000000000000000000000000000000
:1001000000000000000000001903000819030008A7
:10011000190300081903000819030008190300084F
:10012000190300081903000819030008190300083F
:10013000190300081903000819030008190300082F
:10014000190300081903000819030008190300081F
:10015000000000000000000000000000000000009F
:10016000000000000000000000000000000000008F
:10017000000000000000000000000000000000007F
:10018000000000000000000000000000000000006F
:10019000000000000000000000000000000000005F
:1001A000000000000000000000000000000000004F
:1001B000000000000000000000000000000000003F
:1001C000000000000000000000000000000000002F
:1001D000000000000000000000000000000000001F
:1001E0005FF8E0F100B583B000F01CFB224B234A1E
:1001F00003E0116819600433043221498B42F8D3BB
:10020000204B02E000221A6004331F4A9342F9D3C4
:1002100000F014FB694601A800F0F8FA1B4D1C4BD6
:100220005D1BAD10002404E0184B53F824309847B0
:100230000134A542F8DC174D174B5D1BAD100024AF
:1002400004E0144B53F8243098470134A542F8DCFD
:100250000099019801F012FC0546104C104B1C1B34
:10026000A41004E0013C0D4B53F824309847002CB7
:10027000F8DC284600F0C2FA000000208C5B000881
:100280002000002020000020683E002044030008D9
:100290004403000844030008440300084403000822
:1002A0004403000818480047FEE700BF1EF0040F93
:1002B0000CBFEFF30880EFF309807146134A104733
:1002C000FEE700BFFEE700BF1EF0040F0CBFEFF318
:1002D0000880EFF3098071460D4A1047FEE700BF22
:1002E0001EF0040F0CBFEFF30880EFF30980714696
:1002F000084A1047FEE700BFFEE700BFFEE700BF69
:10030000FEE700BF70470000E5010008C1020008D9
:0C031000DD020008F5020008FEE700BF57
:10031C008C5B000800000020200000208C5B000893
:10032C00000000000000000020000020683E0020BB
:08033C000000000000000000B9
:10034400F8B505460C46464B98421BD003F580632E
:10035400984217D003F58063984213D003F5806365
:1003640098420FD003F5806398420BD003F5806365
:10037400984207D003F58063984203D0B2213948EC
:1003840000F04AFAE3788BB1042B0FD0282B0DD060
:10039400482B0BD0142B09D0102B07D01C2B05D0C5
:1003A400182B03D0B3212F4800F036FA23881BB949
:1003B400B4212C4800F030FAE37803F00F063046FD
:1003C40013F0100F0AD0A378013BDBB2022B03D940
:1003D400BB21244800F020FAA07830432378E3B10D
:1003E4002E68002316E001229A40218832EA010196
:1003F4000FD199000F278F4026EA070600FA01F172
:100404000E43E178282901D16A6102E0482900D12C
:100414002A610133072BE6D92E602388FF2B1ED9CE
:100424006E68002318E003F1080101228A40218844
:1004340032EA01010FD199000F278F4026EA0706FF
:1004440000FA01F10E43E178282900D16A61E178CC
:10045400482900D12A610133072BE4D96E60F8BD25
:10046400000801401C41000838B504460D46144BF1
:1004740098421CD003F58063984218D003F580633A
:10048400984214D003F58063984210D003F580633A
:1004940098420CD003F58063984208D003F580633A
:1004A400984204D040F26911064800F0B5F925B924
:1004B4004FF4B571034800F0AFF9256138BD00BFB2
:1004C400000801401C41000838B504460D460E4B97
:1004D400034003B920B940F24A410C4800F09CF9AA
:1004E400012D04D940F24B41084800F095F925B19B
:1004F400074A93691C43946138BD054A936923EA0A
:100504000404946138BD00BF0200C0FF50410008DC
:100514000010024038B504460D46124B984214D0E0
:10052400A3F57443984210D003F5806398420CD02D
:1005340003F58063984208D003F58063984204D0A1
:1005440040F25F21084800F067F9B5F5007F04D355
:100554004FF41871044800F05FF9C5F30805A5804D
:1005640038BD00BF003801408041000810B5044682
:100574000D4B984214D0A3F57443984210D003F560
:10058400806398420CD003F58063984208D003F549
:100594008063984204D04FF41C71044800F03CF985
:1005A400A088C0F3080010BD003801408041000855
:1005B40038B505460C46264B984214D0A3F574432F
:1005C400984210D003F5806398420CD003F5806301
:1005D400984208D003F58063984204D040F28631F3
:1005E4001C4800F019F9012C18D0802C16D0402C8E
:1005F40014D0202C12D0102C10D0B4F5807F0DD044
:10060400B4F5007F0AD0082C08D0042C06D0022CA4
:1006140004D040F287310F4800F0FEF8B4F5007FB3
:100624000FD10B4B9D420CD0A3F574439D4208D0CF
:1006340003F580639D4204D040F28B31054800F0FD
:10064400EBF82B881C4201D0012038BD002038BDB6
:10065400003801408041000838B505460C463C4B43
:10066400984214D0A3F57443984210D003F58063E4
:1006740098420CD003F58063984208D003F5806358
:10068400984204D040F2D931324800F0C5F8282C01
:1006940025D040F227739C4221D040F226639C422D
:1006A4001DD040F225539C4219D040F224439C4271
:1006B40015D040F646039C4211D040F66A139C4282
:1006C4000DD0B4F5587F0AD0B4F5187F07D0B4F52F
:1006D400B07F04D040F2DA311E4800F09DF840F6B5
:1006E4006A139C420FD11A4B9D420CD0A3F574435C
:1006F4009D4208D003F580639D4204D040F2DE3170
:10070400144800F089F8C4F3421204F01F010123D5
:100714008B40012A03D1AA8992B2134008E0022A2D
:1007240003D12A8A92B2134002E0AA8A92B21340F9
:10073400240A012202FA04F42A8892B2144013B162
:100744001CB9002038BD002038BD012038BD00BFD1
:10075400003801408041000838B505460C46244B5A
:10076400984214D0A3F57443984210D003F58063E3
:1007740098420CD003F58063984208D003F5806357
:10078400984204D040F222411A4800F045F840F261
:1007940026639C4210D040F225539C420CD040F674
:1007A40046039C4208D040F66A139C4204D040F2AF
:1007B4002341104800F030F840F66A139C420FD1F0
:1007C4000B4B9D420CD0A3F574439D4208D003F516
:1007D40080639D4204D040F22741064800F01CF893
:1007E400240A0123A3409BB2DB439BB22B8038BD78
:1007F400003801408041000808B500F021F800BF2E
:1008040008B50120FFF7F8FF01230360014B0B60DB
:10081400704700BF0000002008B5FFF7F1FF00BFDC
:1008240008B500F09BF8024B024A9A6008BD00BF6D
:1008340000ED00E00000000808B500F0BDF808BDB8
:10084400BFF34F8F0549CA6802F4E062044B1343B7
:10085400CB60BFF34F8F00BFFDE700BF00ED00E0AA
:100864000400FA0582B0002301930093364A13680A
:1008740043F480331360344B1B6803F40033009358
:10088400019B01330193009B1BB9019BB3F5A06F3E
:10089400F1D12D4B1B6813F4003F02D001230093C8
:1008A40001E000230093009B012B4AD1274B1A68D7
:1008B40042F010021A601A6822F003021A601A68E1
:1008C40042F002021A60A3F580535A685A605A68CB
:1008D4005A605A6842F480625A60D96A1C4A0A40D3
:1008E400DA62DA6A42F4833242F04402DA621A6863
:1008F40042F080621A60144B1B6813F0006FFAD048
:10090400114B5A6822F47C125A605A6842F4E81275
:100914005A601A6842F080721A600B4B1B6813F01D
:10092400007FFAD0084B5A6822F003025A605A68D2
:1009340042F002025A60044B5B6803F00C03082B7C
:10094400F9D102B0704700BF0010024000200240FD
:1009540000F0FEFF08B5FFF785FF08BD08B5134B8F
:100964001A6842F001021A605968114A0A405A6032
:100974001A6822F0847222F480321A601A6822F40F
:1009840080221A605A6822F4FE025A601A6822F021
:10099400A0521A604FF47F029A600022DA62FFF7D5
:1009A400D9FF4FF00062034B9A6008BD001002406B
:1009B4000000FFF000ED00E010B42D4B5B6803F085
:1009C4000C03042B07D0082B09D0002B40D1294A53
:1009D400294B1A603FE0274A274B1A603BE0244A20
:1009E4005368526802F48032C3F383430D2B01D061
:1009F400023300E006232AB9204A02FB03F31E4A0D
:100A0400136028E01A4AD16AD26A02F00F02013256
:100A140011F4803F07D11749B1FBF2F202FB03F353
:100A2400154A136017E01248C16AC1F3031101317A
:100A3400C46AC4F3032402340E48B0FBF1F101FB91
:100A440004F1B1FBF2F202FB03F30B4A136002E080
:100A5400084A094B1A60064B5B68C3F30313084A40
:100A6400D35CDAB204490B68D3400B6010BC704706
:100A74000010024000127A001800002000093D0016
:100A84000800002010B540F225512748FFF7E4FD87
:100A940000283DD110BD2448FFF768FDC0B22028CE
:100AA40016D10CE0214B195D1F48FFF733FD80215F
:100AB4001D48FFF77DFD0028F9D0013400E0002433
:100AC4001B4B1B789C42EDD30022194B1A7005E096
:100AD400174A1378591C1170144AD054144B1B78BC
:100AE400402B15D10CE0114B195D0F48FFF712FD97
:100AF40080210D48FFF75CFD0028F9D0013400E0A7
:100B040000240B4B1B789C42EDD30022084B1A7037
:100B140020210548FFF74CFD0028BCD140F22551A7
:100B24000448FFF719FE10BD00440040900C00205B
:100B340021000020003801400A4B1B680A4AA2FB2E
:100B440003239B09013BB3F1807F09D2074A536019
:100B5400F021074B83F823100023936007231360CD
:100B6400704700BF18000020D34D621010E000E071
:100B740000ED00E0034B1860024B1B68002BFBD117
:100B8400704700BFD00C0020034B1B681BB1024A06
:100B94001368013B13607047D00C002008B5FFF7C1
:100BA400F3FF08BD00B583B04FF6FF73ADF8043012
:100BB40004238DF807300DEB03010348FFF7C0FB56
:100BC40003B05DF804FB00BF0018014000B583B01A
:100BD4004FF6FF73ADF8043003238DF8063010236D
:100BE4008DF8073001A90348FFF7AAFB03B05DF8AD
:100BF40004FB00BF001801402DE9F0410D4E002513
:100C04003560DFF84080C8F800500B4B1D600B4F77
:100C1400F86001241C60FFF7C5FFC8F80040084BCA
:100C24001D601C60BD68ADB23460FFF7CFFF28467D
:100C3400BDE8F081A0012242B881214200180140A0
:100C4400BC812242B4812242F0B4094D00242C60BC
:100C5400084F3C60084A1460084EF060012313609A
:100C64003B601460F16013602B60F0BC704700BF00
:100C7400A0012242B4812242B881214200180140DD
:100C840010B50C4601462020FFF7DEFF2146212047
:100C9400FFF7DAFF10BD00BF10B582B00121782044
:100CA400FFF712FC4FF6FF73ADF8043003238DF801
:100CB400063010238DF8073001A91948FFF740FBCF
:100CC4004FF48043ADF8043001A91648FFF738FB10
:100CD4004FF48073ADF8043001A91348FFF730FBDB
:100CE4004FF40053ADF80430104C01A92046FFF72F
:100CF40027FB4FF40043ADF8043001A92046FFF769
:100D04001FFB01230A4A1360A2F5FF42683A1360ED
:100D140002F5803204321360083A136002B010BD49
:100D240000180140000C0140001001400014014073
:100D3400A001224208B5FFF7AFFF01210020FFF711
:100D440083FF3220FFF716FF0020FFF755FFC24B49
:100D540018801B889BB249F22032934206D0BE4BC6
:100D64001B889BB2B3F5134F40F0B28001210020E1
:100D7400FFF76AFF4FF480710120FFF765FF4FF41E
:100D8400E0610220FFF760FF41F218010320FFF742
:100D94005BFF00210420FFF757FF40F202210820E7
:100DA400FFF752FF00210920FFF74EFF00210A2020
:100DB400FFF74AFF01210C20FFF746FF00210D2019
:100DC400FFF742FF00210F20FFF73EFF3220FFF71D
:100DD400D1FE40F201110720FFF736FF3220FFF762
:100DE400C9FE4FF486511020FFF72EFF0721112072
:100DF400FFF72AFF4FF488711220FFF725FF4FF405
:100E040030611320FFF720FF00212920FFF71CFF8A
:100E140044F210012B20FFF717FF00215020FFF7A9
:100E240013FFEF215120FFF70FFF00215220FFF79E
:100E34000BFF40F23F115320FFF706FF4FF41C5104
:100E44006020FFF701FF01216120FFF7FDFE002173
:100E54006A20FFF7F9FE00218020FFF7F5FE00214C
:100E64008120FFF7F1FE00218220FFF7EDFE002133
:100E74008320FFF7E9FE00218420FFF7E5FE00212F
:100E84008520FFF7E1FE10219020FFF7DDFE002111
:100E94009220FFF7D9FE01219320FFF7D5FE4FF4EE
:100EA40088719520FFF7D0FE00219720FFF7CCFE34
:100EB40000219820FFF7C8FE0520FFF75BFE40F2F3
:100EC40073110720FFF7C0FE0520FFF753FE08BD8E
:100ED400614B1B889BB248F68912934240F0BE8056
:100EE40001210020FFF7B0FE4AF6A4010320FFF71A
:100EF400ABFE00210C20FFF7A7FE40F60C010D20ED
:100F0400FFF7A2FE4FF42C510E20FFF79DFEB021F7
:100F14001E20FFF799FE42F63F110120FFF794FED1
:100F24004FF4C0610220FFF78FFE00211020FFF76D
:100F34008BFE46F278011120FFF786FE0021052082
:100F4400FFF782FE00210620FFF77EFE4EF61C719D
:100F54001620FFF779FE03211720FFF775FE40F2F4
:100F640033210720FFF770FE00210B20FFF76CFEF2
:100F740000210F20FFF768FE00214120FFF764FEE7
:100F840000214220FFF760FE00214820FFF75CFEAD
:100F940040F23F114920FFF757FE00214A20FFF796
:100FA40053FE00214B20FFF74FFE4FF46F414420C6
:100FB400FFF74AFE00214520FFF746FE40F23F11AD
:100FC4004620FFF741FE40F207713020FFF73CFE58
:100FD4004FF401713120FFF737FE4FF401713220D5
:100FE400FFF732FE40F202513320FFF72DFE40F2AC
:100FF40007513420FFF728FE4FF401713520FFF725
:1010040023FE4FF401713620FFF71EFE40F2025119
:101014003720FFF719FE40F202313A20FFF714FEA1
:1010240040F202313B20FFF70FFE00212320FFF79F
:101034000BFE00212420FFF707FE4FF4404125203A
:10104400FFF702FE00214E20FFF7FEFD00214F2096
:10105400FFF7FAFD08BD00BF220000209A4B1B8851
:101064009BB249F22532934207D0974B1B889BB21F
:1010740049F22832934240F0298143F20801E320E7
:10108400FFF7E2FD1221E720FFF7DEFD41F23121F7
:10109400EF20FFF7D9FD01210020FFF7D5FD4FF424
:1010A40080710120FFF7D0FD4FF4E0610220FFF7CB
:1010B400CBFD41F218010320FFF7C6FD00210420F7
:1010C400FFF7C2FD40F207210820FFF7BDFD002114
:1010D4000920FFF7B9FD00210A20FFF7B5FD012122
:1010E4000C20FFF7B1FD00210D20FFF7ADFD00211D
:1010F4000F20FFF7A9FD00211020FFF7A5FD072110
:101104001120FFF7A1FD00211220FFF79DFD002112
:101114001320FFF799FD0520FFF72CFD0520FFF7AD
:1011240029FD41F290511020FFF78EFD40F2272156
:101134001120FFF789FD0520FFF71CFD0520FFF7AF
:1011440019FD9C211220FFF77FFD0520FFF712FDFA
:101154000520FFF70FFD4FF4C8511320FFF774FD6E
:1011640023212920FFF770FD0E212B20FFF76CFDB2
:101174000520FFF7FFFC0520FFF7FCFC00212020E1
:10118400FFF762FD00212120FFF75EFD0520FFF738
:10119400F1FC0520FFF7EEFC07213020FFF754FD9A
:1011A40040F207713120FFF74FFD06213220FFF78F
:1011B4004BFD40F204713520FFF746FD41F6047102
:1011C4003620FFF741FD04213720FFF73DFD0021C4
:1011D4003820FFF739FD40F206713920FFF734FD5E
:1011E40040F201713C20FFF72FFD0F213D20FFF756
:1011F4002BFD0520FFF7BEFC0520FFF7BBFC0021FB
:101204005020FFF721FDEF215120FFF71DFD0021A4
:101214005220FFF719FD40F23F115320FFF714FD50
:101224004FF427416020FFF70FFD01216120FFF7F4
:101234000BFD00216A20FFF707FD00218020FFF746
:1012440003FD00218120FFF7FFFC00218220FFF72E
:10125400FBFC00218320FFF7F7FC00218420FFF72B
:10126400F3FC00218520FFF7EFFC10219020FFF70D
:10127400EBFC4FF4C0619220FFF7E6FC124B1B8895
:101284009BB249F22832934210D103219320FFF7F5
:10129400DBFC4FF488719520FFF7D6FC00219720E2
:1012A400FFF7D2FC00219820FFF7CEFC40F2331167
:1012B4000720FFF7C9FC00212020FFF7C5FC00210F
:1012C4002120FFF7C1FC08BD22000020C64B1B886B
:1012D4009BB249F23132934240F0F28041F2140160
:1012E400E720FFF7B1FC4FF480710120FFF7ACFC5D
:1012F4004FF400710220FFF7A7FC41F230010320F4
:10130400FFF7A2FC40F202210820FFF79DFC002118
:101314000920FFF799FC00210A20FFF795FC002122
:101324000C20FFF791FC00210D20FFF78DFC00211C
:101334000F20FFF789FC00211020FFF785FC07210F
:101344001120FFF781FC00211220FFF77DFC002112
:101354001320FFF779FC0520FFF70CFC41F29061A4
:101364001020FFF771FC40F227211120FFF76CFCDD
:101374000220FFF7FFFB0C211220FFF765FC02207F
:10138400FFF7F8FB4FF400611320FFF75DFC112118
:101394002920FFF759FC0B212B20FFF755FC0220D5
:1013A400FFF7E8FB00212020FFF74EFC002121205D
:1013B400FFF74AFC00213020FFF746FC4FF483710D
:1013C4003120FFF741FC00213220FFF73DFC4FF4B0
:1013D40001713520FFF738FC41F20A613620FFF72E
:1013E40033FC40F207713720FFF72EFC4FF4837172
:1013F4003820FFF729FC40F207713920FFF724FC5D
:1014040040F202413C20FFF71FFC40F60F413D2013
:10141400FFF71AFC00215020FFF716FCEF215120A2
:10142400FFF712FC00215220FFF70EFC40F23F119F
:101434005320FFF709FC4FF41C516020FFF704FC14
:1014440001216120FFF700FC00216A20FFF7FCFB6B
:1014540000218020FFF7F8FB00218120FFF7F4FB37
:1014640000218220FFF7F0FB00218320FFF7ECFB33
:1014740000218420FFF7E8FB00218520FFF7E4FB2F
:1014840010219020FFF7E0FB4FF4C0619220FFF79A
:10149400DBFB21210720FFF7D7FB0220FFF76AFBC4
:1014A40061210720FFF7D0FB0220FFF763FB40F226
:1014B40033110720FFF7C8FB0220FFF75BFB08BDD1
:1014C400494B1B889BB249F61912934240F08E8017
:1014D40006212820FFF7B8FB01210020FFF7B4FB09
:1014E40000211020FFF7B0FB47F2EF210120FFF7A6
:1014F400ABFB4FF4C0610220FFF7A6FB46F6382190
:101504000320FFF7A1FB46F674011120FFF79CFBB3
:1015140000210F20FFF798FB45F208310B20FFF75D
:1015240093FB03210C20FFF78FFB0A210D20FFF70B
:101534008BFB4FF438510E20FFF786FBBE211E2093
:10154400FFF782FB4FF400412520FFF77DFB4FF4AA
:10155400F0412620FFF778FB78212720FFF774FB62
:1015640000214E20FFF770FB00214F20FFF76CFB9A
:1015740040F6D9011220FFF767FB00213020FFF766
:1015840063FB4FF482713120FFF75EFB4FF48071EF
:101594003220FFF759FB40F205313320FFF754FBAB
:1015A40040F205513420FFF74FFB40F2053135205E
:1015B400FFF74AFB40F207713620FFF745FB4FF473
:1015C40040713720FFF740FB4FF490513A20FFF76A
:1015D4003BFB4FF400613B20FFF736FB3321072030
:1015E400FFF732FB08BD00BF220000208D4B1B8893
:1015F4009BB241F20552934240F012810021072030
:10160400FFF722FB0220FFF7B5FA4FF48E71122088
:10161400FFF71AFB0121A420FFF716FB0F21082076
:10162400FFF712FB08210A20FFF70EFB08210D200B
:10163400FFF70AFB40F207713020FFF705FB072193
:101644003120FFF701FB40F203613220FFF7FCFA7F
:101654004FF4E0613320FFF7F7FA40F2022134201F
:10166400FFF7F2FA02213520FFF7EEFA41F60F7187
:101674003620FFF7E9FA40F207713720FFF7E4FA62
:1016840000213820FFF7E0FA00213920FFF7DCFAC7
:1016940040F207713A20FFF7D7FA00213B20FFF709
:1016A400D3FA07213C20FFF7CFFA00213D20FFF7B2
:1016B400CBFA0220FFF75EFA01210720FFF7C4FAF4
:1016C40001211720FFF7C0FA0220FFF753FA4FF465
:1016D400BD511020FFF7B8FA40F217211120FFF78F
:1016E400B3FA4FF48F711220FFF7AEFA4FF4706122
:1016F4001320FFF7A9FA00212A20FFF7A5FA0A21EF
:101704002920FFF7A1FA4FF49F711220FFF79CFAEA
:1017140000215020FFF798FAEF215120FFF794FAA7
:1017240000215220FFF790FA40F23F115320FFF7B7
:101734008BFA4FF41C516020FFF786FA01216120D7
:10174400FFF782FA00216A20FFF77EFA0021802049
:10175400FFF77AFA00218120FFF776FA0021822030
:10176400FFF772FA00218320FFF76EFA002184202C
:10177400FFF76AFA00218520FFF766FA132190200B
:10178400FFF762FA4FF440719220FFF75DFA0521EA
:101794009320FFF759FA00219520FFF755FA00210D
:1017A4009720FFF751FA00219820FFF74DFA4FF4E4
:1017B40080710120FFF748FA4FF4E0610220FFF73F
:1017C40043FA41F230010320FFF73EFA00210420DE
:1017D400FFF73AFA00210C20FFF736FA00210F2018
:1017E400FFF732FA00212020FFF72EFA00212120F2
:1017F400FFF72AFA21210720FFF726FA0220FFF734
:10180400B9F961210720FFF71FFA0220FFF7B2F9A7
:1018140040F273110720FFF717FA0220FFF7AAF925
:1018240008BD00BF22000020F0280BD8B1F5A07F2E
:1018340008D810B51446FFF723FA21462220FFF7F3
:1018440003FA10BD704700BF2DE9F04F83B0834603
:1018540089461646BDF83080994210D1904202D88C
:101864001446064608E0044606E042464946304629
:10187400FFF7DAFF0136B6B2B442F6D2D6E01F461D
:10188400994204D9C3EB010A1FFA8AFA03E0C1EBB7
:10189400030A1FFA8AFAB34510D1B94502D83C4667
:1018A4004F4608E04C4606E0424639465846FFF7A4
:1018B400BBFF0137BFB2A742F6D9B7E0B34508D999
:1018C400C6EB0B039BB201933D4634464F465E463E
:1018D40005E0CBEB06039BB201934D465C46019BAE
:1018E400534511D10DE00134A4B2AF4202D2013DFF
:1018F400ADB201E00135ADB2424629462046FFF7BC
:1019040093FFA642EFD291E0424629462046FFF7D4
:101914008BFFAF4245D9019A524520D94FEA4A0973
:101924001FFA89F9C2EB09073FB2C2EB0A0A4FEA70
:101934004A0A1FFA8AFA0FE00134A4B2002F02DA2D
:101944004F443FB203E00135ADB257443FB2424683
:1019540029462046FFF768FFA642EDD866E0019AC3
:101964004FEA42091FFA89F9CAEB090636B2CAEBF3
:10197400020A4FEA4A0A1FFA8AFA0FE00135ADB2A9
:10198400002E02DA4E4436B203E00134A4B25644C7
:1019940036B2424629462046FFF746FFAF42EDD80D
:1019A40044E0019A524520D94FEA4A091FFA89F9BD
:1019B400C2EB09073FB2C2EB0A0A4FEA4A0A1FFA0E
:1019C4008AFA0FE00134A4B2002F02DA4F443FB286
:1019D40003E0013DADB257443FB24246294620469A
:1019E400FFF722FFA642EDD820E0019A4FEA420910
:1019F4001FFA89F9CAEB090636B2CAEB020A4FEAA2
:101A04004A0A1FFA8AFA0FE0013DADB2002E02DA4B
:101A14004E4436B203E00134A4B2564436B24246D0
:101A240029462046FFF700FFAF42EDD303B0BDE8DF
:101A3400F08F00BF08B589B280B2FFF721F92220E8
:101A4400FFF7DAF808BD00BF00B583B001212020FC
:101A5400FEF73AFD9C23ADF8043010238DF80730CF
:101A640003238DF8063001A90248FEF769FC03B090
:101A74005DF804FB0014014008B5FFF7E5FF9C2165
:101A84000F48FEF7F1FCFFF757F801F0DDFE4FF4C5
:101A94007F0002F023F801F0C7FE0A4802F026F89E
:101AA400FF2002F01FF8084C0A221146204601F0DC
:101AB4007BFF22220A21204601F076FFFEE700BFC9
:101AC40000140140D84F0008B4410008044BB3F996
:101AD4000030834201D1002070474FF0FF3070473F
:101AE400E00C0020034BB3F9000010B9024BB3F92A
:101AF4003C007047060D0020043E00200A4600F119
:101B0400080303CB10605160704700BF38B50A4B1F
:101B1400B3F9003063B10446184601F019FB0546D9
:101B2400204601F015FBB5F914308382AC8238BD30
:101B3400014B188038BD00BFFC0C00202DE9F0419A
:101B440082B00F46904646E001F002FB0546848BC6
:101B540004F002039BB2002B3BD0B8F1000F05D078
:101B640042460146684601F0F7FF03E003C802ABB2
:101B740003E903006946384601F08EFF48B314F0C8
:101B8400010F16D1B5F90220B7F902309A4208DDE7
:101B9400BDF90230591EB7F90620914219DAF980CD
:101BA40017E0BDF90630B7F90620934211DAFB803D
:101BB4000FE0B5F918400AE0204601F0C9FA0646DC
:101BC4006A4639462046FFF7B9FFB6F91A40002C99
:101BD400F2D1B5F91A000028B6D102B0BDE8F081FF
:101BE4002DE9F04383B00E469046002736E001F01D
:101BF400AFFA0546848B04F002039BB263B3B8F1D9
:101C0400000F05D042460146684601F0A5FF03E0F7
:101C140003C802AB03E903006946304601F03CFF08
:101C2400D0B114F0010F05D1BDF904300133338074
:101C3400012711E0B5F918400CE0204601F088FABC
:101C440081466A4631462046FFF7CAFF00B10127A4
:101C5400B9F91A40002CF0D1B5F91A000028C6D100
:101C6400384603B0BDE8F0832DE9F04182B00F4659
:101C7400904633E001F06CFA0546848B04F00203CD
:101C84009BB24BB3B8F1000F05D0424601466846FB
:101C940001F062FF03E003C802AB03E903006946F5
:101CA400384601F0F9FEB8B114F0010F04D1BDF9C2
:101CB4000030013BBB800FE0B5F918400AE0204634
:101CC40001F046FA06466A4639462046FFF7CCFF3D
:101CD400B6F91A40002CF2D1B5F91A000028C9D17E
:101CE40002B0BDE8F08100BF70B582B05B4B03F178
:101CF400080292E8030002AA02E903001B694BB937
:101D0400564BB3F90020ADF80020B3F90230ADF81A
:101D1400023018E0514AB2F90C3001331BB2ADF86D
:101D24000030B2F90A10ADF80210B2F9042093425F
:101D340009DD4A4BB3F90020ADF80020B3F90E30A9
:101D44000133ADF80230BDF90220444BB3F906303B
:101D54009A427FDC424BB3F93C0001F0F9F90646A4
:101D6400BDF900203D4BB3F900309A421FD13B4BE3
:101D7400B3F90620ADF80620B3F90430ADF8043009
:101D8400374BB3F93C000AE001F0E2F904460022C3
:101D94006946B0F91A00FFF7D1FEB4F9160000281D
:101DA400F2D100226946B6F91800FFF7C7FEBDF963
:101DB4000030ADF804302A4BB3F93C000CE001F0DC
:101DC400C7F9044600226946B0F91A00FFF708FF74
:101DD4000028ECD1B4F916000028F0D1002269469D
:101DE400B6F91800FFF7FCFE04460028DFD11B4BB0
:101DF400B3F90430ADF80430BDF90020934206DA9B
:101E0400184B02AA12E9030083E8030091E7144B7C
:101E1400B3F93C000AE001F09BF90546002269464B
:101E2400B0F91A00FFF720FFB5F916000028F2D127
:101E340000226946B6F91800FFF716FF074B1B6925
:101E4400C82B08DC074B02AA12E9030083E803004D
:101E5400012400E00024204602B070BD24000020CC
:101E6400043E00202C00002070B506460D4600E01C
:101E74001D46284601F06CF90446838B03F00203E7
:101E84009BB273B10146304601F048FEB4F91630F6
:101E9400002BEDD12846FFF719FE002803DA0020B5
:101EA40070BD002070BD012070BD00BF002942D06C
:101EB4002DE9F8430C46074601F04AF98046002311
:101EC4004383C482204601F043F90446B8F81C60F9
:101ED40006F00806B6B2B0F91890B9F1000F02D1B5
:101EE4000783BDE8F883484601F032F9054666B930
:101EF400838B03F008039BB23BB1A8F81A902783A5
:101F0400BDE8F883054600E00546B5F91A4014B962
:101F14006F83BDE8F883204601F01AF9002EF1D151
:101F2400838B03F008039BB2002BEDD06F83A8F8DA
:101F34001A40BDE8F883704708B503460846B3F96C
:101F44000220B3F9001001F08DFD08BD10B582B078
:101F540004460D4B9A6B12B902F05CF811E06B4623
:101F64001068516803C3FFF7BDFD01F0F1F869463D
:101F7400FFF7E2FF2146684601F0D0FD684602F013
:101F840049F802B010BD00BF043E002000B583B084
:101F94000E4B1B781BB10E48FFF7D8FF12E00D4B18
:101FA400B3F93C0001F0D4F803C802AB03E9030021
:101FB400094BB3F9001011B16846FFF755FF6846A5
:101FC400FFF7C4FF03B05DF804FB00BFDC0C002086
:101FD4002C000020043E0020060D0020B0F9002053
:101FE400B0F904309A4207DCB0F90220B0F90630A7
:101FF4009A4203DD0020704700207047012070479B
:1020040030B583B00D4601F0A3F8828B02F00203D1
:102014009BB27BB3044622F4FF6222F0060212054F
:10202400120D012A26D02846FFF7D8FF10B3224606
:102034002946684601F090FD6846FFF7CFFFC8B116
:10204400A38B03F0200292B232B104F108006A4675
:10205400014601F0D7FC0DE004F1080202A911E9E0
:10206400030082E8030043F02003A383024A138899
:102074000133138003B030BDDA0C002030B330B527
:1020840083B004460D4601F063F8838B03F002032A
:102094009BB2CBB102462946684601F05DFD98B17A
:1020A40069462046FFF7ACFF204600F0EDFA0446EF
:1020B40008E069462046FFF7E1FF204601F048F8B2
:1020C400B0F91A40002CF4D103B030BD704700BF02
:1020D40000293FD02DE9F04182B00E461546044652
:1020E400084601F035F80746B0F81C8008F00203F2
:1020F4009BB263B302462146684601F02DFD30B31E
:1021040028F4FF6828F006084FEA08584FEA1858E0
:10211400B8F1010F07D1B7F91A20B7F916106846BC
:10212400FFF7D6FF03E069463046FFF769FFB7F9CA
:1021340018400AE0AC420AD069462046FFF79EFFE9
:10214400204601F005F8B0F91A40002CF2D102B093
:10215400BDE8F081704700BF00B585B0ADF8080058
:1021640004AB43F80C1D194600F0D2FA05B05DF833
:1021740004FB00BF00234B800B80B0F90430B0F99E
:1021840000209B1A8B80B0F90630B0F902209B1A0C
:10219400CB807047002837D0F0B585B006460C4692
:1021A40000F0D6FF0546878B07F002039BB24BB3C2
:1021B40003C804AB03E903005CB16B4620686168A3
:1021C40003C369462846FFF7B7FE694602A801F033
:1021D400A5FC314602A8FFF747FE98B127F4FF6734
:1021E40027F006073F053F0D012F07D1B5F91A2047
:1021F400B5F9161002A8FFF76BFF03E002A93046F9
:10220400FFF7FEFE05B0F0BD704700BF08B5002122
:10221400FFF7C0FF08BD00BF70B50C4BB3F93C60BD
:10222400034610B90A4BB3F90030084CA38718468B
:1022340000F08EFF054601F05BFEB5F90030236423
:10224400B5F902306364304670BD00BF043E00201F
:10225400FC0C00202DE9F84F83468A4617461E469B
:10226400BDF928503A4B1B88BDF82C401C43A4B23E
:102274002DB9384B1B8813B1374BB3F90050B5F166
:10228400FF3F00D1002595B1284600F061FFB0F969
:1022940000209344B0F902309A441FB9B0F9047095
:1022A400BF1A01371EB9B0F90660F61A01360D9847
:1022B400203000B201F0DCFA8046002845D0254ADF
:1022C40013880133138000F043FF8146A0F800B067
:1022D400A0F802A05F44013F87805644013EC680B7
:1022E4000C9B0361838B43F69F72224013438383C9
:1022F4004046FFF70BFC29464046FFF7D7FD04F0A4
:1023040020039BB213B14046FFF786FF14F0010F80
:1023140003D0124A13680133136004F040039BB2E4
:1023240013B1404600F078F904F00204A4B244B1B9
:10233400B9F81C3043F00203A9F81C304046FFF7FB
:1023440065FF01214046FFF707FF4046BDE8F88FCF
:10235400000D0020D80C0020E00C0020D40C00203C
:1023640010B584B0089C0394079C0294BDF81840EF
:10237400019400240094FFF76DFF04B010BD00BF6A
:1023840008B5104B1B78CBB10F4B5B69012B04DDF7
:10239400013B0D4A5361002311E00B4A13690133D9
:1023A4001361FFF7A1FC034620B907494A69013AC2
:1023B4004A6104E0FFF7EAFD012300E00023184628
:1023C40008BD00BFDC0C00202400002030B585B01F
:1023D400394B1B781BB9FFF7D9FD012368E004468C
:1023E400364A536901335361012B60DC344BB3F932
:1023F4003C0000F0ADFE05464FF0FF322F4B1A6152
:10240400304B1B781BB102A9FFF778FB0FE0838BDD
:1024140003F002039BB223B103C804AB03E9030036
:1024240005E0264A5369013B5361002340E01CB197
:10243400214602A801F072FB214B9A6B92B16B46C4
:102444001068516803C3204BB3F9000010B100F0C9
:102454007FFE054669462846FFF76EFD694602A8D9
:1024640001F05CFB184BB3F9001049B102A8FFF767
:10247400FBFC034620B911494A69013A4A6117E055
:102484000F4BB3F93C1002A8FFF7EEFC034620B94A
:102494000A494A69013A4A610AE0084B04AA12E966
:1024A400030083E80300FFF76BFF034600E001230A
:1024B400184605B030BD00BFDC0C0020240000200D
:1024C400043E0020080D0020060D00200122014BCF
:1024D4001A707047DC0C002070B50446B0F9045043
:1024E4008668284600F034FE23680E3B1A2B22D857
:1024F400DFE803F01421212121210E2121122121C1
:1025040021212121212121211921212121211D00E4
:102514003146FFF72FFE0EE0A56070BD2146284628
:1025240000F0C6F870BD6FF07043A36070BD28461C
:10253400FFF76CFE70BD0023A36070BD10B50446A8
:1025440003680E2B02D00F2B08D011E083685A6861
:10255400012A10D1186801F097FA10BD064B1868CB
:102564006FF07043984203D001F0B8FA01F05CF9BF
:102574002046FFF7B1FF10BDF40C00201B4B93F96C
:102584000030002B30D110B584B00020184B1880D7
:10259400184B1880184B9863184B1880184B1880E8
:1025A4000290184B01930223009340F6FF731A46DE
:1025B4000146FFF7D5FE144C20806FF07042134B98
:1025C4001A60FFF723FE124800F050F8114800F09B
:1025D4004DF8B4F90000FFF71FFEFFF777FF012263
:1025E400024B1A7004B010BD704700BF3E000020BB
:1025F400FC0C00203C000020043E0020DA0C0020EB
:10260400D80C002041250008E00C0020F40C002028
:102614000C0D0020140D002038B3F8B5044600F06A
:1026240097FD0546204600F05DF80646E0B12046D9
:1026340000F034F80746AB8B03F002039BB22BB1D6
:10264400B5F91A2001462846FFF742FD384600F046
:102654007FFD0746304600F07BFDB5F91A30438311
:10266400B7F918306B833C83F8BD7047024B1A6886
:1026740002601860704700BFF80C0020014BB3F9EA
:1026840000007047E00C002008B5034618B100F0C4
:102694005FFDB0F91830184608BD00BF08B5034601
:1026A40018B100F055FDB0F91630184608BD00BF4A
:1026B40051B138B50D460446FFF7F0FF18B1EC8070
:1026C400294600F025F838BD704700BF08B5FFF76C
:1026D400E5FF20B100F03CFDB0F9180008BD002072
:1026E40008BD00BF38B50546FFF7F0FF044609E012
:1026F400AC420AD0204600F02BFDB0F91A309D42BE
:1027040004D01C46002CF3D100E00024204638BD40
:1027140038B50C4B1B68132B13DC0C46054600F034
:1027240017FDA58002694AB1064D2B6801332B6061
:10273400204690472B68013B2B6038BD2046FFF7AD
:10274400CBFE38BD400000202DE9F8438046894681
:102754001746089C099E1578002E00F095808A4A39
:10276400127C12F0020F08D003F00303012B55D0A2
:10277400022B64D0002B73D141E003F00303012B3F
:102784000ED0022B1AD03BBBAB0936F813201FFA2C
:1027940089F11FFA88F0FFF747F8013C00F0F18057
:1027A400C5F3011308F1010036F813201FFA89F16B
:1027B40080B2FFF739F8013C00F0E380C5F38103F0
:1027C40008F1020036F813201FFA89F180B2FFF7EE
:1027D4002BF8013C00F0D58005F0030508F1030057
:1027E40036F815201FFA89F180B2FFF71DF8013C75
:1027F40000F0C7807D7808F104080137C4E715F0BC
:10280400C00F08D0AB0936F813201FFA89F11FFA5C
:1028140088F0FFF709F8013C00F0B38015F0300FA1
:102824000AD0C5F3011308F1010036F813201FFA8A
:1028340089F180B2FEF7F8FF013C00F0A28015F0A8
:102844000C0F0AD0C5F3810308F1020036F81320F7
:102854001FFA89F180B2FEF7E7FF013C00F0918096
:1028640015F0030508D008F1030036F815201FFA07
:1028740089F180B2FEF7D8FF013C00F082807D78B8
:1028840008F104080137BAE73F4A127C12F0020F3C
:1028940008D003F00303012B46D0022B52D0002BA7
:1028A4005ED135E003F00303012B0BD0022B14D0CF
:1028B400F3B9AA091FFA89F11FFA88F0FEF7B4FFE9
:1028C400013C5ED008F10100C5F301121FFA89F141
:1028D40080B2FEF7A9FF013C53D008F10200C5F312
:1028E40081021FFA89F180B2FEF79EFF013C48D0B5
:1028F40008F1030005F003021FFA89F180B2FEF724
:1029040093FF013C3DD07D7808F104080137D0E7FE
:1029140015F0C00F06D0AA091FFA89F11FFA88F032
:10292400FEF782FF013C2CD015F0300F08D008F1DF
:102934000100C5F301121FFA89F180B2FEF774FF9A
:10294400013C1ED015F00C0F08D008F10200C5F3AD
:1029540081021FFA89F180B2FEF766FF013C10D0B4
:1029640015F0030206D008F103001FFA89F180B2C2
:10297400FEF75AFF013C04D07D7808F104080137C2
:10298400C6E7BDE8F88300BF043E00202DE9F84304
:10299400074689461646089CDDF824801578B8F168
:1029A400000F41D03E4A127C12F0020F03D013F004
:1029B400010F1DD027E013F0010F09D12B0938F8BE
:1029C40013201FFA89F1B8B2FEF72EFF013C65D03F
:1029D40005F00F05781C38F815201FFA89F180B22C
:1029E400FEF722FF013C59D0023775780136E5E73E
:1029F4002B0906D038F813201FFA89F1B8B2FEF774
:102A040013FF013C4AD015F00F0507D0781C38F8A5
:102A140015201FFA89F180B2FEF706FF013C3DD074
:102A2400023775780136E3E71D4A127C12F0020F73
:102A340003D013F0010F19D021E013F0010F07D1D7
:102A44002A091FFA89F1B8B2FEF7EEFE013C25D03F
:102A5400781C05F00F021FFA89F180B2FEF7E4FE3C
:102A6400013C1BD0023775780136E9E72A0904D006
:102A74001FFA89F1B8B2FEF7D7FE013C0ED015F06B
:102A84000F0205D0781C1FFA89F180B2FEF7CCFE44
:102A9400013C03D0023775780136E7E7BDE8F883D7
:102AA400043E002038B504460D46FEF7C3FFC2437A
:102AB40092B2A9B2A0B2FEF7B7FE38BD00B583B09A
:102AC40089B2054B5B8800930B4692B280B2FEF745
:102AD400BBFE03B05DF804FB043E0020F8B50746D6
:102AE4000C4616461D4605E0324621463846FFF799
:102AF400E5FF0134AC42F7DDF8BD00BF2DE9F04736
:102B0400074688461646089C099AB2F800A0B2F80F
:102B140002903578904A127C02F00302012A1CD0FC
:102B240012B1022A0ED026E003F00703072B22D8A5
:102B3400DFE813F09300A200B200C200D200E2006A
:102B4400F100000103F00703013B062B13D8DFE873
:102B540003F01F2D3B495765730003F00703072B50
:102B640009D8DFE813F0FB0005010F011901230167
:102B74002D013701410105F080039BB22BB14A4678
:102B84001FFA88F1B8B2FEF74FFE013C00F039811C
:102B940005F040039BB233B1781C4A461FFA88F112
:102BA40080B2FEF741FE013C00F02B8105F02003CA
:102BB4009BB233B1B81C4A461FFA88F180B2FEF7C3
:102BC40033FE013C00F01D8105F010039BB233B1CC
:102BD400F81C4A461FFA88F180B2FEF725FE013C34
:102BE40000F00F8105F008039BB233B1381D4A464B
:102BF4001FFA88F180B2FEF717FE013C00F0018154
:102C040005F004039BB233B1781D4A461FFA88F1DC
:102C140080B2FEF709FE013C00F0F38005F00203E8
:102C24009BB233B1B81D4A461FFA88F180B2FEF751
:102C3400FBFD013C00F0E58015F0010F06D0F81D06
:102C44004A461FFA88F180B2FEF7EEFD013C00F01F
:102C5400D8800837757801368DE7B8B21FFA88F145
:102C640005F080039BB20BB14A4600E05246FEF7E2
:102C7400DBFD013C00F0C580781C80B21FFA88F1AE
:102C840005F040039BB20BB14A4600E05246FEF702
:102C9400CBFD013C00F0B580B81C80B21FFA88F16E
:102CA40005F020039BB20BB14A4600E05246FEF702
:102CB400BBFD013C00F0A580F81C80B21FFA88F12E
:102CC40005F010039BB20BB14A4600E05246FEF7F2
:102CD400ABFD013C00F09580381D80B21FFA88F1ED
:102CE40005F008039BB20BB14A4600E05246FEF7DA
:102CF4009BFD013C00F08580781D80B21FFA88F1AD
:102D040005F004039BB20BB14A4600E05246FEF7BD
:102D14008BFD013C75D0B81D80B21FFA88F105F017
:102D240002039BB20BB14A4600E05246FEF77CFD1B
:102D3400013C66D0F81D80B21FFA88F115F0010F2E
:102D440001D04A4600E05246FEF76EFD013C58D0E1
:102D540008377578013680E7043E002005F08003CB
:102D64009BB21BB141463846FFF79CFE013C48D05C
:102D740005F040039BB21BB14146781CFFF792FE5D
:102D8400013C3ED005F020039BB21BB14146B81C68
:102D9400FFF788FE013C34D005F010039BB21BB151
:102DA4004146F81CFFF77EFE013C2AD005F00803DB
:102DB4009BB21BB14146381DFFF774FE013C20D085
:102DC40005F004039BB21BB14146781DFFF76AFE70
:102DD400013C16D005F002039BB21BB14146B81D5D
:102DE400FFF760FE013C0CD015F0010F03D0414603
:102DF400F81DFFF757FE013C03D0083775780136FC
:102E0400ACE7BDE8F08700BF2DE9F04105468846F0
:102E140016461C46069F224B1B7C13F0020F1DD145
:102E24005FB917E016F8013B37F813201FFA88F151
:102E3400A8B2FEF7F9FC013C0135002CF2DCBDE838
:102E4400F08116F8012B1FFA88F1A8B2FEF7ECFC0A
:102E5400013C0135002CF4DCBDE8F0816FB91AE0C7
:102E640033789AB232B137F813201FFA88F1A8B236
:102E7400FEF7DAFC013C01350136002CF0DCBDE83C
:102E8400F081327822B11FFA88F1A8B2FEF7CCFCA7
:102E9400013C01350136002CF3DCBDE8F08100BFB4
:102EA400043E0020F8B505460F4616461C460E4B58
:102EB4001B7C13F0020F08D013E036F8022BB9B2D2
:102EC400A8B2FEF7B1FC013C0135002CF5DCF8BDDD
:102ED40032881AB1B9B2A8B2FEF7A6FC013C01359A
:102EE4000236002CF4DCF8BD043E00202DE9F04F3E
:102EF40083B080460F4616461D46DDF834900E9C7E
:102F0400DDF840A00C9B013B0F2B63D8DFE803F0F6
:102F14001629623C6262624E626262626262625E50
:102F2400CDF804A000960F9B22460BEB0701404608
:102F3400FFF7E4FD4C440BF1010B01E04FF0000BF3
:102F4400AB45EDDB46E0CDF804A000960F9B22468E
:102F54000BEB07014046FFF7F7FB4C440BF1010B69
:102F640001E04FF0000BAB45EDDB33E0CDF804A0FE
:102F740000960F9B22460BEB07014046FFF706FD28
:102F84004C440BF1010B01E04FF0000BAB45EDDBC2
:102F940020E0CDF800A0334622460BEB0701404663
:102FA400FFF732FF4C440BF1010B01E04FF0000B33
:102FB400AB45EEDB0EE0334622460AEB0701404602
:102FC400FFF770FF4C440AF1010A01E04FF0000AD8
:102FD400AA45F0DB03B0BDE8F08F00BF704700BF27
:102FE40008B5FDF7A7FE002008BD00BF704700BF6D
:102FF400033020F0030000B2704700BF094B18688B
:103004000AE0094B03EBC003B3F902301BB9054BCB
:10301400186000B270470130B0F5C47FF1DB0020C6
:10302400704700BF1C0000204800002070B400243A
:1030340010E0144931F9352031F9346001EBC40151
:10304400B1F902303344D31A1BB2834201DB20B2FC
:1030540015E02C460B4B03EBC4039D88002DE8D1EF
:10306400084A32F93410B3F902300B44C3F5435320
:103074001433834201DB20B201E04FF0FF3070BC17
:10308400704700BF48000020F8B50646002020E045
:103094001A4B33F9352033F9304003EBC003B3F94D
:1030A40002301C44141BA4B223B2B34210DA7BB125
:1030B40013481044114F07EBC502B2F90220014630
:1030C400C01A00F0C5FF37F835301C1B27F835400F
:1030D40028460A4B03EBC0039D88002DD8D1074A2C
:1030E40032F93010B3F902300B44C3F543531433AF
:1030F400B34201DA4FF0FF3000B2F8BD48000020BF
:10310400300D00200A4B40F287125A609A6043F255
:10311400D402DA811A8200221A609A81054B0421B2
:1031240059801A809A800122034B1A70704700BF9D
:103134001C0D0020480000204400002008B5034B6B
:1031440093F900300BB9FFF7DDFF08BD4400002000
:1031540028B1044A32F93000034B18447047002068
:10316400704700BF48000020300D002070B5FFF705
:10317400E5FF002006460FE0114931F9342031F90A
:10318400305001EBC001B1F902302B44D31A1BB209
:103194009E4200DA1E462046094B03EBC0039C887E
:1031A400002CE9D1064931F93020B3F90230D018A6
:1031B400C0F54350143000B2864200DB304670BD87
:1031C4004800002008B5054B1B6813B1FFF7CEFF7C
:1031D40008BD034BB3F90E0008BD00BF880C0020E6
:1031E4001C0D0020F8B50446FFF7A8FF2046FFF7A2
:1031F400FFFE0546FFF7E6FF85424ADCFFF7FEFEC9
:103204000446002847D02846FFF710FFB0F1FF3FDF
:1032140005D1244B1B6813B92846FFF735FFB0F1DD
:10322400FF3F3AD08646204A32F9303002EBC006DE
:10323400B6F902101944B68802EBC4077D8022F85F
:103244003410BE8016B102EBC606F480164B03EBB5
:10325400C402D08003EBCE039C80144B1A68013265
:103264001A605A68013A5A609B689A4201DA0F4B15
:103274009A60ADB20D4A93892B449381D3895D1B27
:103284002DB2D581B2F910309D4208DA158220465C
:10329400F8BD0020F8BD0020F8BD0020F8BD204690
:1032A400F8BD00BF880C0020480000201C0D002041
:1032B40018B108B5FFF796FF08BD0020704700BF9E
:1032C4000D4B9B8D03F00C03082B0DD00C2B06D05B
:1032D400042B0ED1084BDB69187D01387047064B6F
:1032E400DB69187D40087047034BDB69187D400893
:1032F40070470020704700BF043E0020014BDB698B
:10330400587D7047043E002008B5024BDB695B68BA
:10331400984708BD043E002030B583B001900C46A8
:10332400104B586918B1114600F0B6FBB8B10D4BFB
:10333400DB691B698BB19B682146019898470EE0B5
:1033440001A800F0DDFB0546064BDB691B689847C6
:10335400054B1B680BB128469847013CF0D503B0D8
:1033640030BD00BF043E00205C3E002030B583B079
:103374000190A0B10D460D4BDB691B6953B15B682D
:10338400984711E001A800F0BBFB50B10A280AD00D
:10339400013400E00024AC42F4DB204604E00020C9
:1033A40002E0204600E0204603B030BD043E002089
:1033B40030B583B0019098B10C460B4BDB691B69A7
:1033C4004BB11B6898470CE001A800F099FBFFF78C
:1033D4009BFF054400E00025013CF5D5284600E0AC
:1033E400002003B030BD00BF043E002070B582B0A1
:1033F40004460D46264B1B6873B10020FEF7E6FF1A
:10340400002843D06A4629462046FFF785FFFEF789
:10341400B7FF0028F6D139E06B461068516803C342
:103424001C4AB2F84060BDF800303344ADF80030B7
:10343400B2F84400BDF802100144ADF80210BDF822
:1034440004203244ADF80420BDF806300344ADF83E
:1034540006306846FEF7BAFF78B1BDF900200D4B7F
:103464005A84BDF902209A846A4629462046FFF709
:1034740053FFFEF785FF0028EFD1064B196C5A8CD9
:10348400521A5A84596C9A8C521A9A8402B070BD9A
:10349400503E0020043E00202DE9F04F8BB04F4BEE
:1034A400B3F922200692B3F92480DB699D69AC89C3
:1034B400A04208DBEA89904205D8D5F800B0041B85
:1034C4004FF0FF361EE0AA68D5F804B07AB114882C
:1034D400A04210DB5188884211D8001B80B2526888
:1034E40002EB800132F92040B1F902600AE04FF0AA
:1034F400FF36344606E04FF0FF36344602E04FF024
:10350400FF363446B4F1FF3F60D01B7D1A46AB7CD6
:10351400079203FB02F9297C0891304FB7F92AA0DE
:10352400504600F08FFB0990FB699A7DDB7DA97CF6
:10353400059709FB04B404940391012102910193BA
:103544000092079B089F3A464146069C204600F09D
:10355400B7FBB6F1FF3F17D04AF0020000F072FB50
:103564001E4BDA69917DD27DA87C059309FB06B6D2
:10357400049603900123029301920091079B3A461B
:103584004146204600F09CFB144BDB695A7D1B7DB1
:103594009A4217D9BAF1020F14D08AF0040000F04D
:1035A40051FB0E4BDB69187D597D9A7D08EB0103B5
:1035B400089C2746069E07FB026201FB00813046F9
:1035C40000F058FB9DF8240000F03CFB697C034AA2
:1035D400538C0B4453840BB0BDE8F08F043E0020A1
:1035E400024BDB699B69587C704700BF043E002096
:1035F40002230B80704700BF83699A89914202DBE2
:10360400DA8991420FD99B687BB11A8891420ED313
:10361400588881420DD85B68891A33F92130002B10
:1036240009DA00207047012070470020704700200D
:103634007047002070470120704700BF06E00388F0
:103644008B4202D84388994202D980680028F6D177
:10365400704700BF2DE9F04F87B00446374BB3F9EC
:103664002A80DB6901469869FFF7E8FF002861D0EA
:10367400D0F804900788E71B09EBC70595F802B05A
:10368400404600F0DFFA82462D4B1B783BB16A7846
:103694002A4BD969897D588C02FB11025A84274C24
:1036A400B4F92200B4F9241019F83720E669337DFF
:1036B40096F816E096F817C005946E680496CDF84F
:1036C4000CB001260296CDF804C0CDF800E000F05D
:1036D400F7FAE269537D117D8B421DD9D47D03FB3A
:1036E40004F601FB04F4B8F1020F15D000F06CF9F4
:1036F400804600F063F900F0F5F9104BB3F92200AD
:10370400B3F9241019F8372073180244214400F047
:10371400B1FA404600F0E6F9504600F093FA084B3F
:103724001B783BB96878054BDA69917D5A8C00FBAC
:1037340001225A8407B0BDE8F08F00BF043E002088
:103744004C3E002038B50446084BDD690146A869A3
:10375400FFF774FF40B142680388E41A12F834009A
:10376400AB7D03FB00F038BD002038BD043E0020D3
:1037740001230B80704700BF08B58069FFF75EFF27
:10378400003018BF012008BD38B504460C4D456112
:10379400083000F035FC0B4BE361656101232376AF
:1037A400FEF76CFFA0876FF0704323636363002010
:1037B40000F0C8FB6FF07F4000F0D2FB38BD00BFC3
:1037C4000C3E00208C5400082DE9F04182B00746DD
:1037D4000D4616461C46042000F034FA8046114B70
:1037E4001A6C17445B6C1D4416441C44ADF80070FD
:1037F400ADF80460ADF80250ADF806406846FEF737
:10380400E5FD48B1234632462946384600F032FAEF
:10381400FEF7B6FD0028F5D1404600F013FA02B0D9
:10382400BDE8F081043E002008B50021084600F000
:10383400DDF8044840F6FF731A460146FFF7C4FF5B
:1038440008BD00BF01F0FFFF10B52E22064B1A7011
:10385400FFF7CCFB0548FFF797FF00F051FB044648
:10386400FEF78CFE204610BD603E0020043E002082
:1038740038B50546FFF71CFD044628B1FFF768FC80
:103884002A46002100F094F9204638BD002800F0B3
:1038940087802DE9F04F83B00446FFF72FFD804663
:1038A400404DB5F92290FFF70BFD1FFA80FAAB8C5F
:1038B400CAEB0303AB8463E047F6FF712046FFF7CE
:1038C40055FD074601462046FFF772FD354B9B8D9B
:1038D40003F00303012B07D0022B01D0002204E0E4
:1038E40000EBD0735A1000E002462E4E738C9B1AE4
:1038F4009BB21AB27284ADF8002085B22B44013B0E
:10390400ADF80430B6F92430ADF802301FFA88FB64
:103914005B44013BADF806306A4639462046FFF762
:1039240065FDBDF90230B3843946204600F0EEF857
:10393400231822560A2A01D00D2A18D1194A928D29
:1039440002F00302013A012A03D8164AA2F822908F
:1039540003E0144AB2F92010518493F900200A2A92
:103964000AD110498A8C9344A1F824B004E0BDF92B
:10397400000005440B4A558493F9002022B15C1CD5
:1039840094F90030002B97D1064B9A8C9244A3F8FB
:1039940024A09A8D22F003029A8503B0BDE8F08F2B
:1039A400704700BF043E002008B5034B59849A8435
:1039B400FFF76CFF08BD00BF043E002008B500F00F
:1039C4000BFB00F0BBFA08BD08B500F00BFB00F0E0
:1039D400B5FA08BD014B988400207047043E0020CE
:1039E400014B588400207047043E002038B50D4632
:1039F400FFF7F6FF04462846FFF7ECFF204340B2EA
:103A040038BD00BF60B3034611B30AB310B4B1F9B3
:103A14000040B2F90000A042A8BF20461880B1F9C6
:103A24000240B2F90200A042A8BF20465880B2F971
:103A34000440B1F90400A042B8BF20469880B2F90E
:103A44000600B1F906208242B8BF0246DA8006E0D9
:103A540001B9114608684A6818605A60704710BC7A
:103A6400704700BF034668B189B2008808441880D3
:103A740098880144998092B2598811445980D98810
:103A84000A44DA80704700BF024B1B680BB9014B34
:103A9400186070478C0C0020B0F90220B1F9063090
:103AA4009A4213DCB1F90220B0F906309A420FDCD5
:103AB400B0F90020B1F904309A420BDCB1F90020CE
:103AC400B0F904309A4207DD0020704700207047A7
:103AD40000207047002070470120704708B500F0AF
:103AE40031FA08BD08B500F03BFA08BD034BDB69A9
:103AF40008B10249C8611846704700BF043E00205F
:103B0400036813F9012B036090B27047002001E0B1
:103B1400013019464B1E0029FAD17047B0F9002034
:103B2400B1F900309A4200DA0380B0F90220B1F909
:103B340002309A4200DA4380B0F90420B1F904302B
:103B44009A4200DD8380B0F90620B1F906309A422A
:103B540000DDC380704700BF70B4B2F90040B1F912
:103B640000309C42B8BF1C460480B2F90250B1F93F
:103B740002309D42B8BF1D464580B1F90460B2F9D8
:103B84000430B342A8BF33468380B1F90610B2F9BA
:103B940006208A42A8BF0A46C2809C4203DC9542A2
:103BA40003DD002002E0002000E0012070BC70472B
:103BB40010B402E00170013A013012B110F0030FA9
:103BC400F8D1930818D002F0030201EB012404EBAE
:103BD400044405E0046044608460C460043B103025
:103BE400032BF7DC02E00460013B0430002BFAD124
:103BF40002E00170013A0130002AFAD110BC70478A
:103C0400034B1B7C13F0040F00D00138704700BF36
:103C1400043E002010B504460120FFF7F1FF024BDB
:103C240023F8104010BD00BF043E002010B5044628
:103C34000020FFF7E5FF024B23F8104010BD00BF42
:103C4400043E00200A4B1A7C82EA000313F0040F9E
:103C54000AD010B4064B19885C881C805980044B28
:103C64001874104610BC7047014B18741046704706
:103C7400043E002038B5114CB4F90840844200DCFD
:103C840004460E48B0F90C00904200DB1046844212
:103C940013DC0A4AB2F90A508D4200DC0D46074A89
:103CA400B2F90E209A4200DB1A46954205DC13460F
:103CB400024629462046FEF711FF38BD043E002087
:103CC4002DE9F04F8FB00D90069107921E460C938C
:103CD400DDF860B0DDF86890834B1B687BB11C682D
:103CE4001D9D05951C9D04951B9D0395CDF808907D
:103CF400199D0195CDF800B03346A047F1E0069B2D
:103D04000C9A1344581E0D9B079A13445A1E199B70
:103D14004BEA0303012B40F08480744BB3F90A107F
:103D2400069BCB1A002B0BDD0C9CE41A0C94002C84
:103D340040F3D7801B9C1C9D04FB03531C9300E0A1
:103D440006996A4BB3F90E30C31A002B05DD0C98A3
:103D5400C31A0C93002B40F3C480644BB3F90C30AA
:103D6400D31A002B02DD079AD31A07935F4BB3F9DA
:103D740008200D98904242DA131A0798C01A079047
:103D840009F1FF300F283BD8DFE800F008143A208F
:103D94003A3A3A2C3A3A3A3A3A3A3A321C9A02EBDA
:103DA400E3021C9223F007020D9810440D9003F0D7
:103DB400070325E01C9A02EBA3021C9223F00302E2
:103DC4000D9810440D9003F0030319E01C9A02EBC4
:103DD40063021C9223F001020D9810440D9003F02D
:103DE40001030DE01C9818441C900D92002307E079
:103DF4001C9800EB43031C930D92002300E0002366
:103E0400079A002A6DDD1D98049003931C9B02936E
:103E14001B9B0193CDF800900C9B0D98FFF766F85F
:103E24005FE0C9F108030A93002308931C4654E099
:103E340006990B46199A13440B93013B1A460993AE
:103E44002A4BB3F90A309A423EDB284BB3F90E30C1
:103E5400994231DD38E025B998F8004008F10108AD
:103E640008250A9B44FA03F304FA09F4E4B2C9EB03
:103E7400050513F0FF0104D11C4A127C12F0020F55
:103E840017D11A4AB2F802A01D9A2AB1DBB232F84D
:103E94001320164B5A8001E0144B598006EB0B0299
:103EA400099B013A06993046FFF7E4FE0F4BA3F84D
:103EB40002A001375E4404E0DDF870800D9E002707
:103EC4003D46079B9F42C6DB089B013308931C9B1E
:103ED4001B9A13441C930B9B0693089B0C9A9342C6
:103EE400A6DB0FB0BDE8F08F503E0020043E00205A
:103EF40008B5024800F084F808BD00BF0C3E00205D
:103F040010B5FFF7F5FFFFF76BF8044600F036F83D
:103F14000420FFF797FE40F6FF731A460021084677
:103F2400FFF7A8FE0020FFF78DFEFFF757F82046A5
:103F340010BD00BF08B500F05BF808BD08B500F07F
:103F44005BF808BD08B5054B5B6B834205D0034B9A
:103F54005863FFF7EFFFFFF769FE08BD043E00203A
:103F640008B5054B1B6B834205D0034B1863FFF761
:103F7400E1FFFFF74FFE08BD043E0020704700BF7D
:103F840030B400F01F04C0F34515C0F3C420C0EBE7
:103F940000200F49A1FB0023C01A03EB5000C5EB1E
:103FA40005250C4AA2FB0523ED1A03EB55035B0917
:103FB400C4EB0424A1FB0412A41A02EB5402120958
:103FC4001B0203EB101000EB024030BC704700BF33
:103FD4008510420805411004014B1888704700BF42
:103FE400043E0020014B5888704700BF043E002067
:103FF40008B500F01FF808BD08B5FFF7C1FF08BDFC
:10400400002303804380EF23838040F23F13C38067
:10401400704700BF10B582B004466846FFF7F0FF52
:104024006A4621460248FFF797FD02B010BD00BF63
:104034000C3E0020C208830AC0F3C4405B0103F4B1
:10404400FC630344D00200F478401844704700BF76
:104054008842F0B50DD98B1898420AD28118002AEB
:1040640051D09A1A13F8014D934201F8014DF9D138
:10407400F0BD0F2A48D941EA00039B0746D11546F3
:1040840000F1100401F1100353F8106C103D44F8D2
:10409400106C53F80C6C0F2D44F80C6C53F8086C2E
:1040A40004F1100444F8186C53F8046C03F1100381
:1040B40044F8146CE8D8A2F1100323F00F0302F0C3
:1040C4000F0E1033BEF1030F1944034421D90E46D9
:1040D40074461D1F56F8047B043C032C45F8047FEA
:1040E400F8D8AEF1040424F0030404342344214436
:1040F40002F0030262B1013B0A4411F8014B8A4207
:1041040003F8014FF9D1F0BD0346F3E70346F2E7A4
:10411400F0BD7246EEE700BF2E2E2F7379737465DF
:104124006D2F7372632F73746D333266312D737414
:10413400647065726970682F73746D3332663130E0
:10414400785F6770696F2E63000000002E2E2F7356
:10415400797374656D2F7372632F73746D33326664
:10416400312D7374647065726970682F73746D3364
:1041740032663130785F7263632E63002E2E2F73A4
:10418400797374656D2F7372632F73746D33326634
:10419400312D7374647065726970682F73746D3334
:1041A40032663130785F75736172742E630000007B
:1041B40031303148656C6C6F20576F726C6400004D
:1041C40000000000000000001F003FC030C060601D
:1041D40060606060606060606060606060606060DB
:1041E40030C03FC00F80000000000000000000004D
:1041F4000000000000000000030003000F001F0087
:104204003300030003000300030003000300030062
:104214000300030003000000000000000000000091
:1042240000000000000000001F803FC070E06060DC
:104234000060006000C000C0018007000E0018008C
:1042440030007FE07FE0000000000000000000007C
:1042540000000000000000001F003F8071C060C02B
:1042640000C00180070007C000E0006000606060DB
:1042740070C03FC01F0000000000000000000000EC
:10428400000000000000000000800180038007801F
:104294000D800D801980318061807FE07FE0018096
:1042A4000180018001800000000000000000000087
:1042B40000000000000000001FC01FC030003000DC
:1042C400300037807FC060E00060006000606060A4
:1042D40070C03FC01F00000000000000000000008C
:1042E40000000000000000000F801FC030E03060BC
:1042F400600067807FC070E06060606060606060E4
:1043040030C01FC00F0000000000000000000000CB
:1043140000000000000000007FE07FE000C001809A
:10432400018003000300060006000C000C000C00D2
:104334001800180018000000000000000000000031
:1043440000000000000000000F001F8030C030C0DB
:1043540030C030C01F801F8030C06060606060600B
:1043640070E03FC01F80000000000000000000005B
:1043740000000000000000000F003F8030C06060BB
:1043840060606060606030E03FE01E60006060C0BC
:1043940070C03F801F00000000000000000000000B
:1043A40000000000303030303030303030303000F9
:1043B4000030300000000000000000000000000099
:1043C40000000000000000006F007F80718060C06A
:1043D40060C060C060C060C071807F806F0060009A
:1043E40060006000600000000000000000000000A9
:1043F40000000000000000001EC03FC031C060C0CB
:1044040060C060C060C060C031C03FC01EC000C09A
:1044140000C000C000C00000000000000000000058
:104424006E7E70606060606060606000000000002C
:104434000000000000000000000000000000000078
:104444007FE07FE00000000000007FE07FE00000EC
:104454000000000000000000000000000000000058
:104464000000000000000000000000004000700098
:104474003C000F0001C0006001C00F003C00700050
:1044840040000000000000000000000000000000E8
:1044940000000000000000001F803FC070E060606A
:1044A400006000C001C00380070006000600000091
:1044B40000000600060000000000000000000000EC
:1044C40000000000000000000000000000000000E8
:1044D400C060C06060C060C0318031801B001B00C0
:1044E4000E000E00040000000000000000000000A8
:1044F40000000000000000000000000000000000B8
:10450400C106C3864384628C66CC36D836D8145030
:104514001C701C700C600000000000000000000013
:104524000000000000000000000000000000000087
:10453400E1C06180330033001E000C001E00330014
:1045440033006180E1C000000000000000000000B2
:104554000000000000000000000000000000000057
:1045640060C060C031803180398019801B000F0029
:104574000F000600060006000C007C007800000016
:104584000000000000000000000000000000000027
:104594007F807F80038007000E001C0038007000BD
:1045A400E000FF80FF800000000000000000000029
:1045B400000000001C3C303030303070E0E06030EF
:1045C40030303030303C1C000000000030303030DF
:1045D40030303030303030303030303030303030D7
:1045E40000000000707818181818181C0E0E1C18FB
:1045F4001818181818787000000000000000000057
:1046040000000000000000000000000038007E20D0
:1046140047E001C0000000000000000000000000AE
:1046240000000000000000000000000060301000E6
:104634000000000000000000000000000000000076
:104644000000000000000000000000000000000066
:104654001F807FC060C000C007C03FC078C060C07A
:1046640061C07FC03E600000000000000000000048
:1046740020007E00704A00080000000000000000D6
:104684000000000000000000FCFC0000000000002E
:1046940000000000000000000000000000C000C096
:1046A40000C000C01EC03FC031C060C060C060C058
:1046B40060C060C031C03FC01EC0000000000000E8
:1046C4000000000000000000787818181818181866
:1046D400181818181818181818787800000000000E
:1046E400000000000000000000FE0007FF800F0330
:1046F400C01C00E018736031FB70338E30630630E9
:10470400660630660630660470660C60671CC0334B
:10471400FF8039EF301C00600F01C007FF8001FEED
:104724000000000000000000000000000700070077
:104734000D800D800D8018C018C018C03FE03FE008
:10474400603060306030C018C01800000000000005
:104754000000000000000000000000003FC03FE037
:1047640030703030303030703FE03FE0303030185F
:104774003018301830383FF03FE0000000000000EF
:1047840000000000000000000000000007E01FF02F
:104794001C38301C700C6000600060006000600019
:1047A400700C30183C381FF007E0000000000000D7
:1047B4000000000000000000000000003FC03FF0C7
:1047C40030383018300C300C300C300C300C300CCD
:1047D400300C301830383FF03FC0000000000000BB
:1047E4000000000000000000000000003FF83FF857
:1047F40030003000300030003FF03FF03000300037
:104804003000300030003FF83FF8000000000000A6
:104814000000000000000000000000003FF03FF036
:1048240030003000300030003FE03FE03000300026
:104834003000300030003000300000000000000084
:1048440000000000000000000000000007F00FF866
:104854001C1C300E30046000600060FE60FE6006C8
:10486400300630061C1E0FFC03F0000000000000A0
:104874000000000000000000000000006018601844
:1048840060186018601860187FF87FF86018601866
:1048940060186018601860186018000000000000BC
:1048A4000000000000000000303030303030303084
:1048B40030303030303030000000000000000000A4
:1048C40000000000018001800180018001800180DE
:1048D40001800180018001806180618073803F00DC
:1048E4001E000000000000000000000000000000A6
:1048F400000000003038307030E031C033803700C1
:1049040037003F003B8031C030E0306030703038D9
:10491400301C000000000000000000000000000047
:104924000000000030003000300030003000300063
:1049340030003000300030003000300030003FE004
:104944003FE0000000000000000000000000000044
:104954000000000000000000700700780F00780FCE
:1049640000680B006C1B006C1B00641300663300B2
:104974006633006223006363006363006143006184
:10498400C30061C30000000000000000000000003C
:104994000000000000000000000000006018701813
:1049A400781878186C1866186618631861986198F6
:1049B40060D86078607860386018000000000000FB
:1049C40000000000000000000000000007E00FF0FD
:1049D4001C38300C700E60066006600660066006C7
:1049E400700E300C1C380FF007E0000000000000CF
:1049F40000000000000000000000000000000000B3
:104A0400000000001F003F8060C060007C003F8009
:104A140003C000C060C03F801F0000000000000011
:104A2400000000000000000020606060F8F8606092
:104A340060606060607838000000000000000000E2
:104A440000000000000000000000000060C060C022
:104A540060C060C060C060C060C060C071C03FC062
:104A64001EC0000000000000000000000606010057
:104A74008850000806060100A44300080707010047
:104A8400D05000080C0C0200E85000080C0C020086
:104A94001851000813130300485100080E0E0200B9
:104AA4009051000804040100C051000807070100E8
:104AB400D851000807070100F05100080808010058
:104AC400085200080C0C02002052000806060100DF
:104AD400604F000807070100804600080606010031
:104AE400B052000806060100405000080C0C0200F9
:104AF400C44100080C0C0200F44100080C0C020034
:104B0400244200080C0C0200544200080C0C020061
:104B1400844200080C0C0200B44200080C0C020091
:104B2400E44200080C0C0200144300080C0C0200C0
:104B3400444300080C0C02007443000806060100FC
:104B44005850000806060100705000080C0C0200C2
:104B5400A05000080C0C0200344400080C0C0200A5
:104B6400644400080C0C020094440008151503006A
:104B7400E04600080D0D0200284700080E0E020052
:104B8400584700080F0F0200884700080F0F020063
:104B9400B84700080E0E0200E84700080D0D020099
:104BA4001848000810100200484800080E0E0200C1
:104BB4007848000806060100A84800080B0B02000C
:104BC400C04800080E0E0200F04800080C0C020059
:104BD4002049000811110300504900080E0E02007C
:104BE4009849000810100200C84900080E0E02007F
:104BF400684D000810100200984D00080F0F0200C5
:104C0400C84D00080E0E0200F84D00080C0C0200FE
:104C1400284E00080E0E0200584E00080D0D02002A
:104C2400884E000815150300B84E00080E0E020049
:104C3400004F00080E0E0200304F00080D0D020058
:104C4400784F000806060100A84F00080606010078
:104C5400C04F000806060100C84600080808010005
:104C6400F84F00080C0C0200105000080707010060
:104C74002C4600080C0C0200444600080B0B0200F2
:104C8400505200080B0B0200805200080B0B02006C
:104C9400984600080C0C0200C852000806060100E1
:104CA400F85200080B0B0200105300080B0B020013
:104CB4004053000805050100705300080404010076
:104CC400885300080A0A0200A053000804040100E3
:104CD400D053000810100200E85300080B0B020028
:104CE400185400080C0C0200485400080B0B020076
:104CF400BC4300080B0B0200EC430008070701004B
:104D04001C4400080B0B0200F849000806060100C9
:104D1400284A00080B0B0200404A00080B0B020053
:104D2400C44400080F0F0200F44400080A0A0200F9
:104D3400244500080B0B0200544500080909020031
:104D44008445000807070100B44500080606010071
:104D5400CC45000807070100E44500080C0C0200DC
:104D6400FC45000800000000000000003FE03FF0A8
:104D7400303830183018301830383FF03FE0300009
:104D8400300030003000300030000000000000002F
:104D940000000000000000000000000007E00FF821
:104DA4001C3C300C700E60066006600660066006EF
:104DB400700C30EC1C380FFC07EE00020000000001
:104DC4000000000000000000000000003FE03FF091
:104DD40030383018301830383FF03FE030C030E021
:104DE4003060307030383018301C00000000000093
:104DF40000000000000000000000000007C01FF0D9
:104E040038383018300038001F8007E00070001870
:104E14006018701838381FF00FC000000000000040
:104E2400000000000000000000000000FFF0FFF0A0
:104E3400060006000600060006000600060006003E
:104E44000600060006000600060000000000000040
:104E5400000000000000000000000000601860185E
:104E6400601860186018601860186018601860187E
:104E74006018703838701FE00FC000000000000098
:104E8400000000000000000000000000C018E0382E
:104E94006030603070703060306038E018C018C026
:104EA4001DC00D800D800F80070000000000000071
:104EB40000000000000000000000000000000000EE
:104EC400C07018C0701860D83060D83060D83070A6
:104ED400C870318C60318C60318C601B06C01B063D
:104EE400C01B06C01B06C00E03800E03800000001A
:104EF40000000000000000000000000000000000AE
:104F0400000000007038387018600CC00CC00780B6
:104F14000300078007800DC01CE018603030703833
:104F2400E01C000000000000000000000000000081
:104F340000000000E01C6018303038701CE00CC029
:104F4400078007800300030003000300030003003D
:104F5400030000000000000000000000000000004A
:104F640000000000000000000000000000303010CD
:104F74001020000000000000000000007FF07FF01F
:104F8400006000C001800180030006000C001800CE
:104F9400180030006000FFF0FFF000000000000087
:104FA40000000000000000007878606060606060CD
:104FB400606060606060606060787800000000009D
:104FC400C0C060606060303030181818180C0C00D5
:104FD40000000000593600084937000875370008FA
:104FE4007D3700080000000018180101744600080D
:104FF400130B0F0000000000183C3C3C666666C3BF
:10500400000000000000000000000000000000009C
:10501400000000000000000000000000000000008C
:10502400000000000000000000000000000000007C
:10503400000000000000FFF0FFF00000000000008E
:105044000C0C1818181830303060606060C0C00054
:1050540000000000000000000000000030300000EC
:1050640000000000003030000000000000000000DC
:10507400000000003030000000000000003030105C
:1050840010200000000000000000000000000000EC
:10509400000000000000000000000000000000000C
:1050A4000000000000000000002000E003C00F002A
:1050B4003800600038000F0003C000E0002000004A
:1050C40000000000000000000000000000000000DC
:1050D40066666666660000000000000000000000CE
:1050E4000000000000000000000000000C600C60E4
:1050F4000CE018C0FFF0FFF018C031803180FFF0E1
:10510400FFF03180730063006300000000000000C2
:105114000000000000000000000004001F003F80A9
:1051240075C064C0640074003E000F8005C004C0F4
:1051340004C064C075C03F801F0004000400000068
:10514400000000000000000000000000000000005B
:105154001C0600360C00630C00631800631800631F
:1051640030003660001C670000CD8000D8C0019874
:10517400C00198C00318C0060D8006070000000097
:10518400000000000000000000000000000000001B
:105194000000000007800FC01860186018C00D8060
:1051A4000F001F00339861D860F0606070F03FD842
:1051B4001F080000000000000000000000000000C4
:1051C40060606060600000000000000000000000FB
:1051D4000000000000000000040818103030606077
:1051E4006060606060303010180804000000000047
:1051F4004020301018180C0C0C0C0C0C0C18181047
:1052040030204000000000001818FF183C66000021
:10521400000000000000000000000000000000008A
:105224000000000000000000000006000600060068
:1052340006007FE07FE0060006000600060000008E
:10524400000000000000000000000000000000005A
:105254000000000060006000600060006F007F805C
:10526400718060C060C060C060C060C071807F80B9
:105274006F000000000000000000000000000000BB
:105284000000000000000000000000000F003F804C
:1052940031C060C060006000600060C031C03F8009
:1052A4001F000000000000000000000000000000DB
:1052B400000000000000000000000000003030008A
:1052C40000000000000000000000000000000000DA
:1052D400000000000F003FC030C060607FE07FE04E
:1052E4006000600030E03FC00F800000000000005C
:1052F40000000000000000001C3C3030FCFC30309A
:105304003030303030303000000000000000000049
:105314000000000000000000000000001EC03FC0AC
:1053240031C060C060C060C060C060C031C03FC0F8
:105334001EC000C061C07F801F000000000000008C
:105344000000000060006000600060006F007F806B
:1053540071C060C060C060C060C060C060C060C038
:1053640060C0000000000000000000000000000019
:105374006060000060606060606060606060600049
:1053840000000000000000006060000060606060D9
:10539400606060606060606060E0C0000000000009
:1053A40000000000600060006000600061C0638075
:1053B40067006E007C007E0066006300638061808D
:1053C40061C00000000000000000000000000000B8
:1053D4006060606060606060606060606060600029
:1053E40000000000000000000000000000000000B9
:1053F400000000006F3C7F7E71C661866186618615
:105404006186618661866186618600000000000015
:105414000000000000000000000000000000000088
:10542400000000006F007F8071C060C060C060C079
:1054340060C060C060C060C060C0000000000000C8
:105444000000000000000000000000000000000058
:10545400000000000F003FC030C06060606060600A
:105464006060606030C03FC00F00000000000000BA
:1054740000000000AC540008AC540008845B000831
:1054840020007E00060601009D340008E535000872
:10549400F5350008FD35000800000000080801018A
:1054A4007854000807050700000000000000000011
:1054B4002020202020002000484848000000000050
:1054C4005050F850F85050002078A07028F0200078
:1054D400C0C81020409818006090A040A8906800B0
:1054E40060204000000000001020404040201000D8
:1054F4004020101010204000005020F820500000E0
:10550400002020F82020000000000000006020405F
:10551400000000F8000000000000000000606000CF
:105524000008102040800000708898A8C888700087
:105534002060202020207000708808304080F8000F
:10554400708808300888700010305090F8101000EF
:10555400F880F00808887000304080F08888700077
:10556400F8081020404040007088887088887000D7
:105574007088887808106000006060006060000037
:105584000000606000602040102040804020100037
:105594000000F800F8000000804020102040800047
:1055A400708808102000200070880868A8A870007F
:1055B400708888F888888800F08888F08888F000E7
:1055C4007088808080887000E09088888890E000EF
:1055D400F88080F08080F800F88080F0808080007F
:1055E4007088808098887800888888F888888800FF
:1055F40070202020202070003810101010906000BF
:105604008890A0C0A0908800808080808080F8006E
:1056140088D8A8A8888888008888C8A89888880016
:105624007088888888887000F08888F0808080007E
:1056340070888888A8906800F08888F0A090880016
:105644007088807008887000F820202020202000B6
:10565400888888888888700088888888885020008E
:10566400888888A8A8A85000888850205088880076
:105674008888885020202000F80810204080F800F6
:1056840070404040404070000080402010080000FE
:1056940070101010101070002050880000000000DE
:1056A40000000000000000F840201000000000008E
:1056B40000007008788878008080B0C88888F0007E
:1056C40000007080808870000808689888887800D6
:1056D40000007088F8807000304840E0404040008E
:1056E40000007888887808708080B0C8888888002E
:1056F40020006020202070001000301010109060F6
:10570400808090A0C0A09000602020202020700005
:105714000000D0A8888888000000B0C88888880065
:1057240000007088888870000000F08888F080800D
:1057340000007888887808080000B0C8808080005D
:10574400000078807008F0004040E040404830009D
:1057540000008888889868000000888888502000A5
:1057640000008888A8A850000000885020508800B5
:1057740000008888887808700000F8102040F8003D
:105784001020204020201000202020202020200055
:1057940040202010202040006890000000000000FD
:1057A4001820000000000000C020000000000000DD
:1057B400708800000000000050000000000000009D
:1057C40068900000000000000000006020207000CD
:1057D400006090F08888B08020007088F888880085
:1057E40020007008788878003860A0B8E0A0B8007D
:1057F400704848E848487000E0407048487040E00D
:105804000000D02878A05800A040A010788870002C
:105814006020302830207000708898A8C8887000F4
:1058240000007098A8C8700000007088F88888008C
:105834000000F880E080F800000070202020700054
:10584400000070888888700000008888888870004C
:10585400000088C8A898880020002020202020006C
:105864002000204080887000182000000000000004
:10587400C0200000000000002050000000000000D4
:1058840050000000000000006890000000000000CC
:1058940000000000000000200000000000000000E4
:1058A400002070A0A0A87020304040E04048B00024
:1058B40000008870507088008850F820F82020007C
:1058C400202020002020200030482050209060001C
:1058D4008800000000000000F888A8B8A888F80034
:1058E4007008788870000000002850A0502800003C
:1058F400000000F80808000000000070000000002C
:10590400F888A88898A8F800F800000000000000B3
:1059140020502000000000000020702000700000D3
:1059240060902040F0000000E0106010E0000000F3
:1059340018200000000000000000888888C8B0809B
:10594400789898781818180000000030300000008B
:1059540040C04040E000000070888888700000006B
:1059640000A0502850A000008890A050B05078109B
:105974008890A040B8081038C040C048D8283808DB
:105984000088502050880000002000F8002000000B
:10599400103070FC70301000203038FC383020009B
:1059A400002070F820200000002020F87020000063
:1059B40000082868F86020000004040808905020BB
:1059C4009D00FFFF9E00FFFF9F00FFFFA000FFFF61
:1059D400A100FFFFA200FFFFFFFFFFFFFFFFFFFF8C
:1059E400FFFFFFFFFFFFFFFFFFFFFFFFFFFFFFFFC3
:1059F400FFFFFFFFFFFFFFFFFFFFFFFFFFFFFFFFB3
:105A04007E00FFFF7600FFFF7F00FFFF8000FFFFA7
:105A14008100FFFF8200FFFF8300FFFF8400FFFF80
:105A24008500FFFF8600FFFF8700FFFF8800FFFF60
:105A34008900FFFF8A00FFFF8B00FFFF8C00FFFF40
:105A44008D00FFFF8E00FFFF8F00FFFF9000FFFF20
:105A54009100FFFF9200FFFF9300FFFF9400FFFF00
:105A64007D00FFFF9500FFFF9600FFFF9700FFFFFB
:105A74009800FFFF9900FFFF9A00FFFF7700FFFFE8
:105A8400700079007000780070007A0070007C006B
:105A940070007B006600FFFF6800FFFF23007D00AD
:105AA400710079007100780071007A0071007B0048
:105AB400720079007200780072007A0072007B0034
:105AC4006900FFFF75007C007300790073007800A3
